:020000040800F2
:10400000D0FA0020B5420008D9850008D543000841
:10401000D5850008D95E000829AE00080000000020
:10402000000000000000000000000000E59D000806
:10403000C94200080000000023430008C5A0000892
:10404000CF420008CF420008CF420008CF4200080C
:10405000CF420008CF420008CF420008CF420008FC
:10406000CF420008CF420008CF420008CF420008EC
:10407000CF420008CF420008CF420008CF420008DC
:10408000CF420008CF420008D1540008CF420008B8
:10409000DD5E0008CF420008CF420008CF42000892
:1040A000CF420008CF420008CF420008CF420008AC
:1040B000CF420008CF420008CF420008CF4200089C
:1040C000CF420008CF420008CF420008CF4200088C
:1040D000CF420008654F0008CF420008CF420008D9
:1040E00061770008CF420008CF420008CF420008A5
:1040F000CF420008CF420008CF420008CF4200085C
:10410000CF420008CF420008CF420008CF4200084B
:10411000CF420008CF420008CF42000859A1000852
:10412000CF420008CF420008CF420008CF4200082B
:10413000CF420008CF420008CF420008CF4200081B
:10414000415F0008CF420008CF420008CF4200087C
:10415000CF420008CF420008CF420008CF420008FB
:10416000CF420008CF420008CF420008CF420008EB
:10417000CF420008CF420008CF420008CF420008DB
:10418000CF420008CF4200084443444300000000EF
:10419000000000000000000000000000000000001F
:1041A00000F002F800F076F80AA090E8000C8244D3
:1041B0008344AAF10107DA4501D100F06BF8AFF2B0
:1041C000090EBAE80F0013F0010F18BFFB1A43F0F5
:1041D00001031847108E0100308E01000A444FF091
:1041E000000C10F8013B13F0070408BF10F8014B56
:1041F0001D1108BF10F8015B641E05D010F8016B9B
:10420000641E01F8016BF9D113F0080F1EBF10F8FE
:10421000014BAD1C0C1B09D16D1E58BF01F801CB21
:10422000FAD505E014F8016B01F8016B6D1EF9D5A4
:104230009142D6D3704700000023002400250026B9
:10424000103A28BF78C1FBD8520728BF30C148BFF9
:104250000B607047642900F01181732900F0998484
:10426000002070471FB517F0F1F89DE8030000F03B
:1042700015FD00F0F1FD04000020002116F0DAFF2A
:10428000401C606000F0B4FB1FBD10B5002000F0C2
:10429000BCFC10BD00F0BAFD1146FFF7E3FF0FF0C4
:1042A00015FA00F005FE03B4FFF7EFFF03BC00F0C2
:1042B000A7FD00000948804709480047FEE7FEE7E0
:1042C000FEE7FEE7FEE7FEE7FEE7FEE7FEE7FEE7C6
:1042D00004480549054A064B70470000D5A0000870
:1042E000A1410008D0F40020D0FA0020D0F6002030
:1042F000D0F60020EFF3108072B6704780F310887C
:104300007047394A1368012B04D04FF00103136042
:10431000364A1060364A116036484FF080510160CD
:104320007047EFF3108272B62F48016821B34FF047
:10433000000101602D48016891B1EFF309811EF081
:10434000100F08BF21ED108B21E9F00F4FF0000492
:104350001EF0100F08BF012441F8044D00680160F1
:1043600023490968096808C9B1E8F00F002B18BF94
:10437000B1EC108B81F3098882F310884EF0100E97
:10438000002B18BF2EF0100E4EF0040E7047184987
:104390000860EFF3148222F0040282F314881349B8
:1043A0004FF00000086010494FF00100086012480B
:1043B0004FF47F01D0F8002041EA020101600D486E
:1043C0004FF0805101600D480068006880F3088854
:1043D00062B67047EFF3098000B512F04DFA5DF850
:1043E00004EB4EF0040E7047B4020020AC02002033
:1043F000B002002004ED00E020ED00E008ED00E058
:104400000FB41CB5074B06AA7B446946009005987B
:1044100000F095FB0020694600F0A4FB1CBC5DF891
:1044200014FB00005907000070B50C460546012A30
:1044300005D02878800600D5EA69002302E0012330
:1044400005E05B1C934202D2E05C0028F9D1A86928
:10445000E618C01AA861286A184428622846AFF3F3
:10446000008004E0D5E9012114F8010B9047B44223
:10447000F8D32846AFF3008070BD00002DE9F0416D
:104480000646002410687529314616A510D0AFF3F2
:104490000080002802DA404213A507E031688A074D
:1044A00001D512A502E0490704D511A5012401E0B8
:1044B000AFF3008000210A2206F1240709E0B0FBD7
:1044C000F2FCB0FBF2F302FB1C00303078541846CB
:1044D000491C0028F3D123462A463046BDE8F04166
:1044E00000F0CFBA000000002D0000002B000000FB
:1044F000200000002DE9F05F894604464FF0000AD5
:10450000DFF824B1FB44C0F820A02046E1688847CA
:1045100000287DD0252806D0D4E901219047206AC3
:10452000401C2062F1E700255F462046E16888478D
:104530002028064607DB312E05D2B81910F8200CCA
:1045400008B10543F1E7A80701D525F00405C4F833
:104550001CA00027C4F818A02A2E09D0304609F064
:1045600013FA38B304EB8708303EC8F8186019E036
:1045700059F8041B204604EB87029161E1688847E3
:10458000012F064618D1E069002820DA25F0200521
:104590001DE0D8F8180000EB800006EB4000303832
:1045A000C8F818002046E1688847064609F0ECF98B
:1045B0000028EED1012F0AD02E2E08D12046E16826
:1045C00088477F1C0646022F45F02005C4DBA06902
:1045D000002803DA404245F00105A061E80701D058
:1045E00025F01005A6B1A6F14100192802D8203601
:1045F00045F400654A463146204625604D46FFF7A2
:1046000029FE60B1012807D0ED1D25F0070000E06C
:1046100007E000F1080978E705F1040975E730467D
:104620007AE7206ABDE8F09F347E010070B5064647
:1046300000F0F4F90468054630460A22002100F033
:10464000ACFA2C6070BD2DE9F041074615460E46C8
:10465000102000F0E7F904000AD06760C4E90265A1
:1046600000F0D8F90168216004600020BDE8F08105
:104670000120FBE740EA0103024630B59B0710D159
:104680004FF0013400E008C208C91D1B9D4315EA24
:10469000C41FF8D013F0FF0102F8011B0DD01B0A54
:1046A000F8E711F8013B002B02F8013B05D011F8A7
:1046B000013B002B02F8013BF3D130BD10B5431C88
:1046C00002E010F8011B71B18107FAD14FF00132FD
:1046D00002C88C1A8C4314EAC211F9D0C01A0A0617
:1046E00003D0C01E10BDC01A10BD0A0401D0801E28
:1046F00010BD0902FCD0401E10BD40EA010370B598
:104700009B072ED14FF00136042A2AD308C810C9BE
:104710009D1B9D43121F15EAC61517D0D8B2E1B2F2
:10472000401A50EA056110D198B2A1B2401A50EA7D
:1047300005410AD123F07F4024F07F41401A50EA1E
:10474000052102D1180EA0EB146070BDA342DBD08E
:1047500018BA21BA884201D9012070BD4FF0FF304C
:1047600070BD0AB9002070BD10F8013B11F8014B73
:1047700063B1A3420AD1521E08D010F8013B11F8D0
:10478000014B1BB1A34201D1521EEDD1181B70BDCC
:10479000032A40F2308010F0030C00F0158011F86D
:1047A000013BBCF1020F624498BF11F801CB00F845
:1047B000013B38BF11F8013BA2F1040298BF00F899
:1047C00001CB38BF00F8013B11F0030300F0258056
:1047D000083AC0F0088051F8043B083A51F804CB7D
:1047E000A0E80810F5E7121D5CBF51F8043B40F843
:1047F000043BAFF30080D20724BF11F8013B11F84E
:1048000001CB48BF11F8012B24BF00F8013B00F891
:1048100001CB48BF00F8012B704710B5203AC0F01B
:104820000B80B1E81850203AA0E81850B1E81850B1
:10483000A0E81850BFF4F5AF5FEA027C24BFB1E8EE
:104840001850A0E8185044BF18C918C0BDE810405F
:104850005FEA827C24BF51F8043B40F8043B08BF68
:104860007047D20728BF31F8023B48BF11F8012B2F
:1048700028BF20F8023B48BF00F8012B70474FF0DB
:1048800000020429C0F0128010F0030C00F01B801D
:10489000CCF1040CBCF1020F18BF00F8012BA8BF2B
:1048A00020F8022BA1EB0C0100F00DB85FEAC17CEF
:1048B00024BF00F8012B00F8012B48BF00F8012BA2
:1048C00070474FF0000200B51346944696462039D3
:1048D00022BFA0E80C50A0E80C50B1F12001BFF4B9
:1048E000F7AF090728BFA0E80C5048BF0CC05DF81F
:1048F00004EB890028BF40F8042B08BF704748BF6D
:1049000020F8022B11F0804F18BF00F8012B7047E0
:1049100010B5044610F0030F08BF11F0030F40F06C
:1049200015804FF0013E121FC0F20E8051F8043B7B
:10493000A3EB0E0C2CEA030C1CEACE1C08BF40F8BB
:10494000043BF0D0A1F1040102F10402521E08DB85
:1049500011F8013B002B00F8013BF7D11146FFF79E
:104960008EFF204610BD00004FF0013C50F8042B94
:1049700051F8043B9A4221D1A2EB0C03934313EA72
:10498000CC1317D150F8042B51F8043B9A4215D19F
:10499000A2EB0C03934313EACC130BD150F8042B76
:1049A00051F8043B9A4209D1A2EB0C03934313EA5A
:1049B000CC13DBD04FF00000704700BFD01A01BA13
:1049C000B1FA81F101F0180122FA01F0CB40C1F1F6
:1049D0002001DBB2C0B2C01A2CFA01F3D11A914304
:1049E00011EAC311E6D17047704770477047000065
:1049F00070B5064C7C44064D7D4403E0206820449D
:104A00008047241DAC42F9D170BD00002C87010005
:104A10003087010000487047A4F400200048704728
:104A20006CF4002070B5064600F01CF9056806F12C
:104A30000B0020F00704B4429CBF002070BD2B4641
:104A40006A68BAB11068A04210D304F10801884224
:104A50003CBF5068586007D3516810194160116815
:104A6000091B016058601460101D70BD1346526828
:104A7000002AE7D12146284600F0FCF80028DED1C4
:104A800070BD2DE9F0470D4699469246044600F167
:104A900024080168880604D5E06921F0100121602E
:104AA00000E00120A84201DD471B00E00027A169CA
:104AB0007A1902EB0900081AA0612078C00602D416
:104AC0002046AFF30080002608E0D4E901211AF85F
:104AD00006009047206A401C761C20624E45F4DB9D
:104AE0002078C0060AD52046AFF3008006E0D4E95E
:104AF000012130209047206A401C2062381EA7F117
:104B00000107F4DC07E0D4E9012118F8050090471B
:104B1000206A401C2062281EA5F10105F3DC204616
:104B2000AFF300802078000602D50220BDE8F087B0
:104B30000120FBE701694A1C02610878704700B553
:104B40008FB0CDE901310021059105497944CDE9C6
:104B5000031011466846FFF7CDFC0FB000BD000002
:104B6000E5FFFFFF0A6802F8010B0A60704710B505
:104B7000436913B1AFF3008001E0FFF755FC01205A
:104B800010BD127800F124010A7000224A7001223F
:104B9000EDE711684FF0FF32E9E72DE9F047914664
:104BA0000F4680460446002614F8015B2DB100F044
:104BB00051F80068405DC007F6D12B2D02D02D2D95
:104BC00018D0641E4A463946204600F0C4F827B182
:104BD0003968A14201D1C7F800804FF00204710585
:104BE0000BD54042002803DDFFF718FF0460A00743
:104BF000BDE8F08746F48066E4E70028F8DAFFF7BE
:104C00000DFF04606FF00040F2E72DE9F041064629
:104C1000FFF700FF8046454613E016B1E068B0425A
:104C20000ED120682860D4E90101D8F800708847C7
:104C3000204600F069F8D8F80000B842EBD100E057
:104C400025462C68002CE8D1BDE8F081004870476B
:104C50006CF4002010B500F0FFF8001D10BD00BF7F
:104C6000D56501000048704774F400207047704714
:104C70007047704738B504460A4600206946AFF3CE
:104C80000080002808BF38BD02460099204600F089
:104C9000E7F8012038BD012000F02CB9F8B5AFF3DA
:104CA0000080054600200C46102000BF0646A819CB
:104CB000A0420DD9324669460020AFF300800700BC
:104CC00008BF00F017F90098A04218BF0546C419A4
:104CD000FFF7C8FF05600746F01D20F007004619E2
:104CE000284600F00AF8B44208BFF8BDA21B3146BE
:104CF0003868BDE8F84000F0B3B800210160C0E9B1
:104D0000011070471020704770B50446051FFFF76B
:104D1000A9FF0068002C14BF446870BD002C18BFA8
:104D2000AC423CBF20466468F8D301680A18AA4226
:104D300018BF456003D12A68054611440160286800
:104D40004119A1421CBF6C6070BD61686960216837
:104D50000844286070BD2DE9F05F824615468B46F9
:104D600000270AF10104B9460078302801D09DB12E
:104D700013E014F8010B0127782803D0582801D03C
:104D800045B10AE00DB1102D07D1002714F8010B31
:104D9000102502E0082500E00A250026B0460EE0B6
:104DA00005FB080005FB06F101271FFA80F801EB5F
:104DB0001046B6F5803F00D3B94614F8010B2946DA
:104DC00000F068F80028EBDABBF1000F05D00FB156
:104DD000641E00E05446CBF80040B9F1000F06D045
:104DE000FFF71CFE02210160C81EBDE8F09F48EAE3
:104DF0000640FAE7002801D000F002B87047000032
:104E000001491820ABBEFEE7260002007546FFF7F9
:104E10001DFFAE4605006946534620F00700854653
:104E200018B020B5FFF754FABDE820404FF0000657
:104E30004FF000074FF000084FF0000B21F0070182
:104E4000AC46ACE8C009ACE8C009ACE8C009ACE8C5
:104E5000C0098D4670470000004870478CF4002060
:104E6000034640688C46002818BF88423CBF034672
:104E70004068F8D318681844884207D00CF1030042
:104E800020F00700001D411A521A0146081D0A6051
:104E9000FFF73ABF3A2800D2303820F02002412AEA
:104EA00001D3A2F13700884201D34FF0FF307047A1
:104EB00010B50446AFF300802046BDE81040FFF770
:104EC000F2B970B505460C460A2000E06D1C00F0F2
:104ED00018F835B128780028F8D102E0641C00F0F9
:104EE00010F814B120780028F8D1BDE870400A20ED
:104EF00000F007B810B500F00DF8BDE81040FFF75E
:104F000079BF08B569468DF800000320ABBE08BD27
:104F10007047000010B5012805D0002103A0FFF75D
:104F2000D0FF012010BD09A1F8E700005349475206
:104F3000544D454D3A204F7574206F662068656169
:104F400070206D656D6F7279000000003A20486531
:104F50006170206D656D6F727920636F727275700C
:104F60007465640010B540F22441084805F0E4FC83
:104F700050B1064805F022FF0021054805F02AFB44
:104F80000121034805F05EF910BD0000001001404A
:104F90000014004070B505460C46002617488542AF
:104FA00005D01748854202D01648854200D104E05A
:104FB00040F2CB11144809F02BFE144884420FD064
:104FC000134884420CD01348844209D0B4F5000F32
:104FD00006D0B4F5800F03D0B4F5400F00D004B96B
:104FE00004E04FF4E671084809F012FE6E680948C3
:104FF000C043064026436E6070BD000000200140A3
:1050000000210140002201402CC50108000280005F
:10501000000240000002C00070B505460C460026A4
:105020001F48854205D01F48854202D01E48854250
:1050300000D104E040F211211C4809F0E9FD1CB345
:10504000012C21D0022C1FD0032C1DD0042C1BD0EE
:10505000052C19D0062C17D0072C15D0082C13D0EE
:10506000092C11D00A2C0FD00B2C0DD00C2C0BD0EE
:105070000D2C09D00E2C07D00F2C05D0102C03D0EE
:10508000112C01D0122C00D104E040F2122107486B
:1050900009F0BEFD6E6826F01F0626436E6070BDE7
:1050A0000020014000210140002201402CC50108E0
:1050B00070B504460E4615461148844205D0114885
:1050C000844202D01048844200D104E04FF4F471CD
:1050D0000E4809F09DFDB6F5805F00DA04E040F26D
:1050E000E9110A4809F094FDB5F5805F00DA04E0A3
:1050F0004FF4F571054809F08BFD6662A56270BD3D
:105100000020014000210140002201402CC501087F
:1051100070B504460D460E48844205D00D488442C1
:1051200002D00D48844200D104E040F27B610B487C
:1051300009F06EFD05F0C00008B905B104E040F2C9
:105140007C61064809F064FDE843206070BD000002
:105150000020014000210140002201402CC501082F
:1051600070B505460C4600261348854205D0134805
:10517000854202D01248854200D104E040F2BA6173
:10518000104809F045FD40F2052084420AD0B4F5EC
:10519000837F07D040F20740844203D042F21A00D6
:1051A000844200D104E040F2BB61064809F030FDC2
:1051B0002612F043286070BD00200140002101400C
:1051C000002201402CC5010870B504460D46114867
:1051D000844205D01048844202D01048844200D155
:1051E00004E04FF4C9710E4809F012FD0DB1012D14
:1051F00000D104E040F29311094809F009FD25B1FE
:10520000A06840F00100A06003E0A06820F0010069
:10521000A06070BD0020014000210140002201403B
:105220002CC5010870B504460025206818B3206815
:10523000012820D0206802281DD0206805281AD017
:105240002068062817D02068072814D0206809286D
:1052500011D0206811280ED0206812280BD02068A9
:10526000152808D02068162805D02068172802D0F5
:105270002068192800D104E040F259113F4809F094
:10528000C7FC606858B16068B0F5803F07D06068BF
:10529000B0F5003F03D06068B0F5403F00D104E0B6
:1052A0004FF4AD71354809F0B3FCA06858B1A0685F
:1052B000B0F5804F07D0A068B0F5004F03D0A068CC
:1052C000B0F5404F00D104E040F25B112B4809F0EB
:1052D0009FFCE068D8B3E068B0F5807F37D0E06825
:1052E000B0F5007F33D0E068B0F5407F2FD0E068A4
:1052F000B0F5806F2BD0E068B0F5A06F27D0E068E4
:10530000B0F5C06F23D0E068B0F5E06F1FD0E06863
:10531000B0F5006F1BD0E068B0F5106F17D0E068F3
:10532000B0F5206F13D0E068B0F5306F0FD0E068B3
:10533000B0F5406F0BD0E068B0F5506F07D0E06873
:10534000B0F5606F03D0E068B0F5706F00D104E095
:105350004FF4AE71094809F05BFC0948056809483B
:105360000540D4E900010843A1680843E168084307
:1053700005430548C0F8045370BD00002CC5010862
:1053800004230140E030FCFF0020014070B50446DA
:105390000D461148844205D01048844202D010487E
:1053A000844200D104E040F21F410E4809F030FC75
:1053B0000DB1012D00D104E04FF48461094809F0DA
:1053C00027FC25B1A06840F48070A06003E0A068CD
:1053D00020F48070A06070BD0020014000210140D9
:1053E000002201402CC5010870B504460D46114845
:1053F000844205D01048844202D01048844200D133
:1054000004E040F237410E4809F002FC0DB1012DD5
:1054100000D104E04FF48761094809F0F9FB25B198
:10542000A06840F40070A06003E0A06820F4007061
:10543000A06070BD00200140002101400022014019
:105440002CC501082DE9F04105460C460026002731
:10545000B0461B48854205D01A48854202D01A48FA
:10546000854200D104E040F29361184809F0D0FB76
:1054700040F2052084420AD0B4F5837F07D040F281
:105480000740844203D042F21A00844200D104E073
:1054900040F294610D4809F0BBFB271268680121B6
:1054A000A14000EA01082868384020B1B8F1000F97
:1054B00001D0012600E000263046BDE8F081000062
:1054C0000020014000210140002201402CC50108BC
:1054D00010B511F045FB4FF483711348FFF7B2FF8D
:1054E00001281ED100224FF483710F4800F020F8EC
:1054F00001210D48FFF70CFE4FF483710A48FFF7B6
:105500002FFE4FF48071094803F014F82A2000BFE1
:10551000011EA0F10100FBDC4FF48071034802F092
:10552000BDFF11F035FB10BD002101400008024015
:105530002DE9F04104460D46164600271D488442D9
:1055400005D01D48844202D01C48844200D104E0AA
:1055500040F234611A4809F05BFB0EB1012E00D114
:1055600004E040F23561164809F052FB40F2052094
:1055700085420AD0B5F5837F07D040F207408542C7
:1055800003D042F21A00854200D104E040F23661B5
:105590000B4809F03DFBEFB2012000FA07F71EB1FE
:1055A00060683843606002E06068B8436060BDE8EE
:1055B000F081000000200140002101400022014054
:1055C0002CC501082DE9F04105460C4600260027B0
:1055D0006148854205D06148854202D060488542D5
:1055E00000D103E0F0215F4809F012FB206858B1B8
:1055F0002068B0F1807F07D02068B0F1007F03D031
:105600002068B0F1407F00D103E0F121554809F056
:10561000FFFA207910B12079012800D103E0F221AE
:10562000504809F0F5FA607910B16079012800D18D
:1056300003E0F3214B4809F0EBFAA06858B1A068E9
:10564000B0F1805F07D0A068B0F1005F03D0A06820
:10565000B0F1405F00D103E0F421424809F0D8FAEC
:10566000E068D8B3E068B0F1807F37D0E068B0F18F
:10567000007F33D0E068B0F1407F2FD0E068B0F118
:10568000806F2BD0E068B0F1A06F27D0E068B0F158
:10569000C06F23D0E068B0F1E06F1FD0E068B0F1D8
:1056A000006F1BD0E068B0F1106F17D0E068B0F168
:1056B000206F13D0E068B0F1306F0FD0E068B0F128
:1056C000406F0BD0E068B0F1506F07D0E068B0F1E8
:1056D000606F03D0E068B0F1706F00D103E0F52196
:1056E000204809F095FA206918B12069B0F5006FDB
:1056F00000D103E0F6211B4809F08AFA207D012839
:1057000003DB207D102800DC03E0F721154809F0B9
:105710007FFA6E68144806402179206840EA01202B
:1057200006436E60AE6811480640D4E90310084392
:10573000A1680843617940EA41000643AE60EE6A21
:1057400026F47006207D401EC0B2074346EA075685
:10575000EE62BDE8F0810000002001400021014020
:10576000002201402CC50108FFFEFFFCFDF7FFC031
:105770002DE9F04706460C4691461D460027B846DF
:10578000BA464E48864205D04D48864202D04D4822
:10579000864200D104E040F2AA414B4809F038FAB1
:1057A0001CB3012C21D0022C1FD0032C1DD0042CA3
:1057B0001BD0052C19D0062C17D0072C15D0082C7F
:1057C00013D0092C11D00A2C0FD00B2C0DD00C2C7F
:1057D0000BD00D2C09D00E2C07D00F2C05D0102C7F
:1057E00003D0112C01D0122C00D104E040F2AB41C7
:1057F000354809F00DFAB9F1010F03DBB9F1040FD7
:1058000000DC04E040F2AC412F4809F001FA6DB130
:10581000012D0BD0022D09D0032D07D0042D05D06A
:10582000052D03D0062D01D0072D00D104E040F254
:10583000AD41254809F0ECF9092C13DDF768A4F116
:105840000A0000EB4001072000FA01F827EA0807E8
:10585000A4F10A0000EB400005FA00F847EA080747
:10586000F7600EE0376904EB4401072000FA01F805
:1058700027EA080704EB440005FA00F847EA08079E
:105880003761B76BC7F3015A09F103000AF101014F
:10589000401A00EB80011F2000FA01F827EA0807F0
:1058A00009F103000AF10101401A00EB800004FA3B
:1058B00000F847EA0807B763BDE8F0870020014019
:1058C00000210140002201402CC501082DE9F041D2
:1058D00004460D46002600271048844205D0104893
:1058E000844202D00F48844200D104E040F2EA41F1
:1058F0000D4809F08DF9012D02DB042D00DC04E0D8
:1059000040F2EB41084809F083F9A66B26F44016F3
:105910006F1E46EA0756A663BDE8F08100200140ED
:1059200000210140002201402CC501082DE9F0476B
:1059300006460C46174698460025A9466148864209
:1059400005D06148864202D06048864200D104E01A
:1059500040F2CF215E4809F05BF91CB3012C21D045
:10596000022C1FD0032C1DD0042C1BD0052C19D0C9
:10597000062C17D0072C15D0082C13D0092C11D0C9
:105980000A2C0FD00B2C0DD00C2C0BD00D2C09D0C9
:105990000E2C07D00F2C05D0102C03D0112C01D0C9
:1059A000122C00D104E04FF43471494809F030F969
:1059B000012F02DB102F00DC04E040F2D12144482B
:1059C00009F026F9B8F1000F14D0B8F1010F11D089
:1059D000B8F1020F0ED0B8F1030F0BD0B8F1040FDD
:1059E00008D0B8F1050F05D0B8F1060F02D0B8F114
:1059F000070F00D104E040F2D221354809F008F940
:105A0000092C13DDF568A4F10A0000EB4001072022
:105A100000FA01F925EA0905A4F10A0000EB4000AB
:105A200008FA00F945EA0905F5600EE0356904EB6E
:105A30004401072000FA01F925EA090504EB4400B6
:105A400008FA00F945EA09053561072F11DA756B87
:105A5000781E00EB80011F2000FA01F925EA0905F4
:105A6000781E00EB800004FA00F945EA0905756329
:105A700026E00D2F11DA356BF81F00EB80011F2097
:105A800000FA01F925EA0905F81F00EB800004FA85
:105A900000F945EA0905356312E0F56AA7F10D0042
:105AA00000EB80011F2000FA01F925EA0905A7F1A2
:105AB0000D0000EB800004FA00F945EA0905F562E3
:105AC000BDE8F08700200140002101400022014094
:105AD0002CC5010810B504460948844205D0094880
:105AE000844202D00848844200D104E040F24631AA
:105AF000064809F08DF8A06840F08040A06010BD15
:105B00000020014000210140002201402CC5010875
:105B10003EB50748C46CD7200290012001AB024675
:105B200002A90090204612F0E9FD9DF804003EBD58
:105B300088B200200146002070470000F8B50746F3
:105B40000D46144627B97022234924A010F01EF8F0
:105B5000102D0BD1214611B94FF0FF30F8BD4FF495
:105B600000704860C0000860886000BF122D31D10D
:105B70002646307910B101282AD116E081208DF80F
:105B800000003088C0F387108DF80100307880065F
:105B9000000E8DF8020000208DF803001349042246
:105BA000C86C694612F09EFD12E0C7208DF8000017
:105BB00094208DF8010080208DF802009A208DF845
:105BC00003000A490422C86C694612F08BFD00BF2D
:105BD00000BF00BF0020C1E7FABE0108646576205F
:105BE000213D2052545F4E554C4C000088B200209D
:105BF0000146002070470246002070472DE9FE4F05
:105C00000F4690461C46C2463D46A3464FF000094B
:105C100021E0002603E0002001A98855761C082E0B
:105C2000F9D3D2208DF80400C5F347108DF8050094
:105C3000E806000E8DF806004FF4806008490090D9
:105C400053460822C86C01A912F058FD0AF5806A73
:105C50006D1C09F10109D945DBD32046BDE8FE8F53
:105C600088B200202DE9FE4F0F4690461C46C246E2
:105C70003D46A3464FF0000921E0002603E0002046
:105C800001A98855761C082EF9D3D2208DF804007E
:105C9000C5F3C7108DF805006806000E8DF80600E4
:105CA0004FF480700849009053460822C86C01A93F
:105CB00012F024FD0AF5807A6D1C09F10109D9451D
:105CC000DBD32046BDE8FE8F88B200202DE9FE4FD1
:105CD0000F4690461C46C2463D46A3464FF000097B
:105CE00021E0002603E0002001A98855761C082E3B
:105CF000F9D3D2208DF80400C5F387108DF8050084
:105D0000A806000E8DF806004FF4007008490090B8
:105D100053460822C86C01A912F0F0FC0AF5007A7B
:105D20006D1C09F10109D945DBD32046BDE8FE8F82
:105D300088B200202DE9FC5F83460E4617461C46BC
:105D4000B9463546A2464FF000081EE082208DF885
:105D50000400C5F347108DF80500E806000E8DF825
:105D6000060000208DF807004FF48060094900907C
:105D70004B460422C86C01A912F050FD09F5806958
:105D80006D1C15F01FF908F10108D045DED320463F
:105D9000BDE8FC9F88B200202DE9FC5F83460E46DB
:105DA00017461C46B9463546A2464FF000081EE08D
:105DB00082208DF80400C5F3C7108DF80500680631
:105DC000000E8DF8060000208DF807004FF480705B
:105DD000094900904B460422C86C01A912F01EFD2F
:105DE00009F580796D1C15F0EDF808F10108D04532
:105DF000DED32046BDE8FC9F88B200202DE9FC5F81
:105E000083460E4617461C46B9463546A2464FF015
:105E100000081EE082208DF80400C5F387108DF87D
:105E20000500A806000E8DF8060000208DF807007A
:105E30004FF40070094900904B460422C86C01A938
:105E400012F0ECFC09F500796D1C15F0BBF808F1B7
:105E50000108D045DED32046BDE8FC9F88B2002073
:105E600008B50748007800B908BD06484FF0FF3371
:105E7000062202210090044810F08CFA00BFF3E7DC
:105E800004020020080200208C2F002010B5002200
:105E900003A1054810F05AFA0449086010BD00003B
:105EA000455F43616E0000008C2F00200C02002033
:105EB00010B50648006838B905480078012803D1B4
:105EC0000221044810F05EFB10BD00000C0200200F
:105ED000040200208C2F002000BFFEE710B510F058
:105EE0003FFE0221124800F079FAE8B1114800683B
:105EF00000EB8000104901EB800200210C4800F00B
:105F0000A3FC0C48006800EB80000B4A02EB800108
:105F10000A4811F0D3F907480068401C0549086099
:105F2000402801D10020086010F032FE10BD0000B2
:105F30000064004044020020008E00207087002092
:105F400010B510F00DFE0421194800F047FA20B1F9
:105F50000421174800F034F827E00821144800F025
:105F60003DFA20B10821124800F02AF81DE011483E
:105F7000006800EB8000104901EB800200210C4812
:105F800000F062FC0B48006800EB80000A4A02EB5C
:105F900080010A4811F092F906480068401C054942
:105FA0000860402801D10020086010F0F1FD10BD0C
:105FB000006800404802002000930020A0870020D5
:105FC00070B504460D464148844202D040488442A0
:105FD00000D104E040F23C613E4808F019FE012D7A
:105FE0001CD0042D1AD0082D18D0202D16D0402DED
:105FF00014D0B5F5807F11D0B5F5007F0ED0B5F582
:10600000806F0BD0B5F5006F08D0B5F5004F05D007
:10601000B5F5803F02D0B5F5003F00D104E040F275
:106020003D612C4808F0F4FDB5F5007F3AD00FDC57
:10603000202D28D006DC012D1CD0042D1DD0082DCC
:1060400040D11DE0402D21D0B5F5807F3AD126E02A
:10605000B5F5004F31D006DCB5F5806F25D0B5F52C
:10606000006F2FD124E0B5F5803F12D0B5F5003F89
:1060700028D111E01848A06025E00820E06022E067
:106080001020E0601FE0082020611CE0102020614B
:1060900019E00820606016E01020606013E0042022
:1060A000606010E0042060600DE0042060600AE0A1
:1060B0000020A0610420606005E00020A0610420B1
:1060C000606000E000BF00BF70BD000000640040E1
:1060D000006800407CC501080101010010B50446BC
:1060E0001048844202D01048844200D103E0A92124
:1060F0000E4808F08DFD0B48844209D10121480665
:1061000003F0B2F900214FF0007003F0ADF908E0A0
:106110000121880603F0A8F900214FF0806003F008
:10612000A3F910BD00640040006800407CC5010870
:1061300070B504460025A07A1B2800DC04E040F27C
:106140005111574808F064FDE07A10B1E07A012857
:1061500000D104E04FF4A971514808F059FD207BAB
:1061600010B1207B012800D104E040F253114C48CB
:1061700008F04EFD208910B12089012800D104E0EB
:106180004FF4AA71464808F043FD607B10B1607B74
:10619000012800D104E040F25511414808F038FDD3
:1061A000A17A012000FA01F53E48006840F00100A4
:1061B0003C4908603B481C300068A84339491C3101
:1061C0000860207BC8B937480C300068A8433549BF
:1061D0000C3108606088E18840EA01413148403074
:1061E000A27A40F832102088A18840EA01412D4867
:1061F0004030A27A00EBC2004160207B012819D117
:1062000028480C300068284326490C310860608813
:10621000218840EA014123484030A27A40F83210F8
:10622000E088A18840EA01411E484030A27A00EB94
:10623000C2004160E07A38B91A48001D0068A843DE
:106240001849091D086006E01648001D006828432B
:106250001449091D0860208930B9124814300068BB
:10626000A8431049143108602089012806D10D483F
:106270001430006828430B4914310860607B012802
:1062800006D108481C300068284306491C310860C4
:106290000448006820F001000249086070BD000059
:1062A0007CC501080066004070B505460C46002616
:1062B0003E48854202D03E48854200D104E040F28B
:1062C00036513C4808F0A4FC3B4884422DD03B4862
:1062D00084422AD0801E844227D0401E844224D08B
:1062E0003748844221D0374884421ED03548083888
:1062F00084421AD03448844217D03448844214D09F
:1063000032480838844210D0314884420DD0314898
:1063100084420AD03048844207D02F48FF38844254
:1063200003D027480A30844200D104E040F23751BC
:10633000204808F06DFC04F4700040B1A869C4F373
:106340001301084008B101262DE000262BE004F0DF
:10635000807040B16868C4F31301084008B1012699
:1063600021E000261FE004F0006040B1A868C4F3FB
:106370001301084008B1012615E0002613E004F0DF
:10638000007040B1E868C4F31301084008B1012669
:1063900009E0002607E02869C4F31301084008B1AA
:1063A000012600E00026304670BD00000064004079
:1063B000006800407CC501087000F0300400F01057
:1063C00008000031100000320300001210000034F9
:1063D00003000014000001380001003870B50446C5
:1063E0000D4600265F48844202D05F48844200D1B7
:1063F00004E040F2D5515D4808F00AFC012D20D0A0
:10640000022D1ED0042D1CD0082D1AD0102D18D00E
:10641000202D16D0402D14D0B5F5807F11D0B5F5C4
:10642000007F0ED0B5F5806F0BD0B5F5006F08D0AA
:10643000B5F5004F05D0B5F5803F02D0B5F5003F6A
:1064400000D104E040F2D651484808F0E1FB606911
:106450002840002871D0B5F5807F5CD010DC082D75
:1064600035D006DC012D20D0022D24D0042D72D190
:1064700027E0102D31D0202D35D0402D6BD138E0C4
:10648000B5F5004F60D009DCB5F5007F49D0B5F512
:10649000806F4CD0B5F5006F5DD14FE0B5F5803F12
:1064A0002DD0B5F5003F56D12FE0A068304900F05F
:1064B000F7FC064651E0E068032100F0F1FC0646D7
:1064C0004BE0E068082100F0EBFC064645E0E068A0
:1064D000102100F0E5FC06463FE02069032100F0B2
:1064E000DFFC064639E02069082100F0D9FC0646A9
:1064F00033E02069102100F0D3FC06462DE06068EF
:10650000082100F0CDFC064627E06068102100F06D
:10651000C7FC064621E0A069012100F0C1FC064647
:106520001BE0A069022100F0BBFC064615E0A06953
:10653000042100F0B5FC06460FE00FE0A0697021D1
:1065400000F0AEFC064608E06068042100F0A8FCFC
:10655000064602E0FFE7002600BF00E000263046C6
:1065600070BD000000640040006800407CC5010868
:106570000101010070B505460C46164623488542C8
:1065800002D02348854200D104E040F20C5121485A
:1065900008F03EFB012C20D0022C1ED0042C1CD075
:1065A000082C1AD0102C18D0202C16D0402C14D027
:1065B000B4F5807F11D0B4F5007F0ED0B4F5806FB4
:1065C0000BD0B4F5006F08D0B4F5004F05D0B4F58A
:1065D000803F02D0B4F5003F00D104E040F20D51FD
:1065E0000C4808F015FB0EB1012E00D104E040F27A
:1065F0000E51084808F00CFB1EB168692043686121
:1066000002E06869A043686170BD0000006400405A
:10661000006800407CC501082DE9F04104460D46A4
:10662000002700268548844202D08548844200D154
:1066300003E0C921834808F0EBFAA87910B1A879E2
:10664000012800D103E0CA217E4808F0E1FAE87988
:1066500010B1E879012800D103E0CB21794808F096
:10666000D7FA287A10B1287A012800D103E0CC218A
:10667000744808F0CDFA687A10B1687A012800D120
:1066800003E0CD216F4808F0C3FAA87A10B1A87AC8
:10669000012800D103E0CE216A4808F0B9FAE87A6F
:1066A00010B1E87A012800D103E0CF21654808F055
:1066B000AFFAA87840B1A878012805D0A8780228B8
:1066C00002D0A878032800D103E0D0215D4808F06B
:1066D0009FFAE87840B1E878012805D0E8780228E8
:1066E00002D0E878032800D103E0D121554808F012
:1066F0008FFA28790F2800DC03E0D221514808F0F6
:1067000087FA6879072800DC03E0D3214D4808F0B8
:106710007FFA2888012804DB2888B0F5806F00DC28
:1067200003E0D421474808F073FA206820F0020003
:106730002060206840F00100206000E0761C606866
:1067400000F0010018B94FF6FF708642F6D160687C
:1067500000F0010008B900276CE0A879012804D1F5
:10676000206840F08000206003E0206820F0800076
:106770002060E879012804D1206840F040002060C2
:1067800003E0206820F040002060287A012804D12E
:10679000206840F02000206003E0206820F0200006
:1067A0002060687A012804D1206840F01000206041
:1067B00003E0206820F010002060A87A012804D1AE
:1067C000206840F00800206003E0206820F0080006
:1067D0002060E87A012804D1206840F0040020609D
:1067E00003E0206820F004002060A8788007E978A2
:1067F00040EA0160297940EA0140697940EA0150A4
:106800002988491E0843E061206820F001002060CB
:10681000002600E0761C606800F0010018B14FF619
:10682000FF708642F6D1606800F0010008B10027D1
:1068300000E001273846BDE8F08100000064004018
:10684000006800407CC5010870B504460D46164638
:106850004548844202D04548844200D104E04FF4C8
:106860003C71434808F0D4F90DB1012D00D104E08A
:1068700040F2F1213E4808F0CBF904F5D87000EB66
:106880000510006800F004003072307A50B904F549
:10689000D87000EB0510006840F2FF7101EA50501B
:1068A000306009E004F5D87000EB051000686FF067
:1068B000604101EAD000706004F5D87000EB05106B
:1068C000006800F00200707204F5D87000EB05104B
:1068D000406800F00F00B07204F5D87000EB0510AE
:1068E0004068000AF07404F5D87000EB0510806869
:1068F000F07204F5D87000EB05108068010A31735E
:1069000004F5D87000EB05108068010C717304F574
:10691000D87000EB05108068000EB07304F5D870D5
:1069200000EB0510C068F07304F5D87000EB05109B
:10693000C068010A317404F5D87000EB0510C06816
:10694000010C717404F5D87000EB0510C068000EDE
:10695000B07425B9E06840F02000E06003E02069F1
:1069600040F02000206170BD0064004000680040DD
:106970007CC5010800218171C1710172417281726F
:10698000C1728170C1700321017102214171012125
:106990000180704770B505460C460026694885425F
:1069A00002D06948854200D104E04FF41171674874
:1069B00008F02EF9207A10B1207A042800D104E0E2
:1069C00040F24521614808F023F9607A10B1607AFD
:1069D000022800D104E040F246215C4808F018F992
:1069E000A07A082800DC04E040F24721574808F06C
:1069F0000FF9A86800F08060B0F1806F01D1002627
:106A000010E0A86800F00060B0F1006F01D101262D
:106A100008E0A86800F08050B0F1805F01D1022644
:106A200000E00426042E7DD005F5C07000EB0610B2
:106A3000006800F0010105F5C07000EB0610016070
:106A4000207AC8B92068B0F5006F00D204E040F2A7
:106A500061213E4808F0DCF8607A218840EA415024
:106A600005F5C07101EB06110968084305F5C07111
:106A700001EB061108601AE06068B0F1005F00D217
:106A800004E040F26721314808F0C2F8207A6168DA
:106A900040EAC100617A084305F5C07101EB0611B7
:106AA0000968084305F5C07101EB06110860A07A7A
:106AB00000F00F00A07205F5C07000EB06104068F2
:106AC00020F00F0105F5C07000EB0610416005F5E0
:106AD000C07000EB06104068A17A084305F5C0714C
:106AE00001EB06114860A07B0106607B41EA004192
:106AF000207B41EA0020E17A084305F5C07101EBF3
:106B000006118860A07C0106607C41EA0041207C7F
:106B100041EA0020E17B084305F5C07101EB061155
:106B2000C86000E00BE005F5C07000EB06100068DF
:106B300040F0010105F5C07000EB06100160304621
:106B400070BD000000640040006800407CC5010882
:106B5000F0B503460C461046002109E0C6B25F5C62
:106B600086EA07050012044E36F815607040491C8D
:106B7000A142F3D3F0BD000028BF01080120014964
:106B8000886070470030024010B5024806F09AFB5A
:106B900010BD0000F81F00200EB5002000900190ED
:106BA00002902548FFF79AFA6846FFF7E3FE0020B7
:106BB0008DF8060001208DF8070000208DF80800F0
:106BC0008DF809008DF80A008DF80B008DF8020091
:106BD0008DF8030002208DF804008DF805000620D2
:106BE000ADF8000069461448FFF716FD1348FFF79B
:106BF00075FA6846FFF7BEFE00208DF806000120FA
:106C00008DF8070000208DF808008DF809008DF838
:106C10000A008DF80B008DF802008DF803000220A9
:106C20008DF804008DF805000620ADF800006946D7
:106C30000248FFF7F1FC0EBD006400400068004010
:106C40001FB5002000900190029003908DF80B007A
:106C500001208DF80C0000208DF80B0001208DF82C
:106C60000C00F820ADF804000020ADF80600ADF8E7
:106C7000080001208DF80D0000208DF80A00514811
:106C800000884FF6FF7101EAC000ADF80000002057
:106C9000ADF802006846FFF74BFA01208DF80A00B4
:106CA000E020ADF800000020ADF802006846FFF7D4
:106CB0003FFA02208DF80A00F820ADF8000000200D
:106CC000ADF802006846FFF733FA3E480088042812
:106CD0000CDC03208DF80A00E820ADF8000000204D
:106CE000ADF802006846FFF723FA0FE03548008848
:106CF00009280BDB03208DF80A00F020ADF8000016
:106D00000020ADF802006846FFF712FA00208DF867
:106D10000B0001208DF80C00F820ADF804000020D5
:106D2000ADF80600ADF8080001208DF80D000E202A
:106D30008DF80A00234800884FF6FF7101EAC00071
:106D4000ADF800000020ADF802006846FFF7F0F94A
:106D50000F208DF80A00E020ADF800000020ADF80B
:106D600002006846FFF7E4F910208DF80A00F820C9
:106D7000ADF800000020ADF802006846FFF7D8F932
:106D80001048008804280CDC11208DF80A00E82047
:106D9000ADF800000020ADF802006846FFF7C8F922
:106DA0000FE00848008809280BDB11208DF80A0045
:106DB000F020ADF800000020ADF802006846FFF7B3
:106DC000B7F91FBD3C0200201CB5002000900190C7
:106DD0000121022002F0CEFA0121480602F01CFB3C
:106DE0004FF44070009002208DF804008DF80500EB
:106DF00000208DF8060001208DF80700694616482E
:106E000001F042F909220821134801F005FA09228C
:106E10001146114801F000FA0121880602F0FCFA3F
:106E20006020009002208DF804008DF805000020FD
:106E30008DF8060001208DF807006946064801F02C
:106E400023F909220521044801F0E6F90922062167
:106E5000014801F0E1F91CBD0004024008B5002022
:106E6000009014208DF8000001208DF80100022010
:106E70008DF8020001208DF80300684601F0CAFB7E
:106E800040208DF8000001208DF8010002208DF8CF
:106E9000020001208DF80300684601F0BBFB08BD2D
:106EA0000246002002EA01030BB1012000E00020AD
:106EB0007047000070B504460D46344884423AD00D
:106EC00032481830844236D030483030844232D094
:106ED0002E48483084422ED02C48603084422AD03C
:106EE0002A487830844226D028489030844222D0E4
:106EF0002648A83084421ED0254884421BD024480E
:106F00001830844217D022483030844213D02048B1
:106F1000483084420FD01E48603084420BD01C4859
:106F20007830844207D01A489030844203D0184801
:106F3000A830844200D104E040F23441154807F003
:106F400067FE05F04050B0F1405F07D005F04050BB
:106F500020B11148284008B905B104E040F235419C
:106F60000C4807F055FE0A48844202D2074E103EF4
:106F700001E0074E103E05F0005018B107482840C8
:106F8000F06002E005482840B06070BD106002402B
:106F900010640240CCC5010882F002C07D0F7D0F55
:106FA00070B504460D46344884423AD03248183011
:106FB000844236D030483030844232D02E48483077
:106FC00084422ED02C48603084422AD02A4878301F
:106FD000844226D028489030844222D02648A830C7
:106FE00084421ED0254884421BD024481830844255
:106FF00017D022483030844213D020484830844291
:107000000FD01E48603084420BD01C487830844238
:1070100007D01A489030844203D01848A8308442E0
:1070200000D104E040F2E941154807F0F1FD05F018
:107030004050B0F1405F07D005F0405020B11DB185
:107040001048284000B904E040F2EA410C4807F03B
:10705000DFFD0A48844202D2074E103E01E0074E8F
:10706000103E05F0005018B107482840F06002E0DB
:1070700005482840B06070BD1060024010640240B6
:10708000CCC50108820082407D0F7D0F70B504469B
:107090000D462C4884423AD02A481830844236D0D3
:1070A00028483030844232D02648483084422ED09E
:1070B0002448603084422AD022487830844226D046
:1070C00020489030844222D01E48A83084421ED0EE
:1070D0001D4884421BD01C481830844217D01A48DF
:1070E0003030844213D01848483084420FD01648BC
:1070F000603084420BD014487830844207D0124864
:107100009030844203D01048A830844200D104E07B
:1071100040F2E1110D4807F07BFD0DB1012D00D1CA
:1071200004E04FF4F171094807F072FD25B12068C1
:1071300040F00100206003E0206820F001002060A2
:1071400070BD00001060024010640240CCC5010810
:1071500010B51C4800F040F81B480068001D1B4992
:107160004860002048614FF4806088610020C86159
:107170000862486288620420C86203200863002015
:10718000486388634FF0006008604020C860104882
:107190008860012008610B4800F090F909483038F8
:1071A00000F01AF84FF00060084908600020C8603D
:1071B000084888604FF4007008610248303800F0D9
:1071C0007DF910BDB86402404C020020749B002081
:1071D000549800205499002010B504467248844207
:1071E0003AD071481830844236D06F4830308442EB
:1071F00032D06D48483084422ED06B486030844293
:107200002AD069487830844226D06748903084423A
:1072100022D06548A83084421ED0644884421BD0E6
:1072200062481830844217D060483030844213D00E
:107230005E48483084420FD05C48603084420BD0B6
:107240005A487830844207D058489030844203D05E
:107250005648A830844200D103E0C721544807F0C3
:10726000D7FC206820F001002060002020606060D2
:10727000A060E0602061212060614B48844204D11D
:107280003D204949103988608CE0474818308442D5
:1072900005D14FF4746044491039886082E0424857
:1072A0003030844205D14FF474103F491039886062
:1072B00078E03D484830844205D14FF074603A4947
:1072C000103988606EE038486030844204D1394813
:1072D00035491039C86065E033487830844204D1BC
:1072E000354831491039C8605CE02F4890308442FD
:1072F00004D132482C491039C86053E02A48A830DC
:10730000844205D14FF03D5027491039C86049E00B
:107310002648844204D13D2024490839086041E0D0
:1073200022481830844205D14FF474601F4908394F
:10733000086037E01D483030844205D14FF47410A6
:107340001A49083908602DE018484830844205D1B0
:107350004FF0746015490839086023E01348603025
:10736000844204D113481149091F08601AE00F48EC
:107370007830844204D110480C49091F086011E09C
:107380000A489030844204D10C480849091F08601B
:1073900008E00648A830844204D14FF03D5003492C
:1073A000091F086010BD0000106002401064024018
:1073B000CCC501083D000020400F002000003D200A
:1073C00070B504460D461646394884423AD03848CE
:1073D0001830844236D036483030844232D0344877
:1073E000483084422ED03248603084422AD030481F
:1073F0007830844226D02E489030844222D02C48C7
:10740000A83084421ED02B4884421BD02948183013
:10741000844217D027483030844213D02548483062
:1074200084420FD02348603084420BD0214878300A
:10743000844207D01F489030844203D01D48A830B2
:10744000844200D104E040F261411B4807F0E0FBB8
:1074500025F09E0008B905B104E040F262411648EB
:1074600007F0D6FB0EB1012E00D104E040F26341DB
:10747000114807F0CDFB05F0800048B126B16069E6
:1074800040F08000606103E0606920F0800060618E
:10749000802D0BD02EB1206805F01E01084320601E
:1074A00004E0206805F01E018843206070BD0000E4
:1074B0001060024010640240CCC5010870B505465A
:1074C0000C460026A24885423AD0A1481830854291
:1074D00036D09F483030854232D09D484830854272
:1074E0002ED09B48603085422AD09948783085421A
:1074F00026D097489030854222D09548A8308542C2
:107500001ED0944885421BD092481830854217D02F
:1075100090483030854213D08E48483085420FD095
:107520008C48603085420BD08A487830854207D03D
:1075300088489030854203D08648A830854200D1E3
:1075400004E04FF4A271844807F062FB2068D8B1D0
:107550002068B0F1007F17D02068B0F1806F13D0A1
:107560002068B0F1C06F0FD02068B0F1006F0BD071
:107570002068B0F1206F07D02068B0F1406F03D0D1
:107580002068B0F1606F00D104E040F2451172480C
:1075900007F03EFBE06828B1E068402802D0E068D0
:1075A000802800D104E04FF4A3716B4807F030FB52
:1075B000206920B12069B0F5803F00D204E040F29C
:1075C0004711654807F024FB6069B0F5007F01D0E2
:1075D000606900B904E04FF4A4715F4807F018FB3C
:1075E000A069B0F5806F01D0A06900B904E040F255
:1075F0004911594807F00CFBE06938B1E069B0F572
:10760000006F03D0E069B0F5805F00D104E04FF473
:10761000A571514807F0FCFA206A38B1206AB0F52C
:10762000005F03D0206AB0F5804F00D104E040F243
:107630004B11494807F0ECFA606A18B1606AB0F57E
:10764000807F00D104E04FF4A671434807F0E0FAD0
:10765000A06A58B1A06AB0F5803F07D0A06AB0F523
:10766000003F03D0A06AB0F5403F00D104E040F2F3
:107670004D11394807F0CCFAE06A10B1E06A0428ED
:1076800000D104E04FF4A771334807F0C1FA206B32
:1076900040B1206B012805D0206B022802D0206B5E
:1076A000032800D104E040F24F112B4807F0B0FA54
:1076B000606B58B1606BB0F5000F07D0606BB0F134
:1076C000807F03D0606BB0F1C07F00D104E04FF445
:1076D000A871214807F09CFAA06B58B1A06BB0F5D7
:1076E000001F07D0A06BB0F5800F03D0A06BB0F5E2
:1076F000C00F00D104E040F25111174807F088FA9A
:107700002E6816480640E16820680843616908430E
:10771000A1690843E1690843216A0843616A084393
:10772000A16A0843616B0843A16B084306432E60BE
:107730006E6926F00706D4E90B01084306436E6123
:10774000206968606068A860A068E86070BD00009B
:107750001060024010640240CCC501083F801CF05C
:1077600070B54FF4006000F04BF860B300260024C1
:10777000002515480088154908600AE0124830F8CD
:1077800016502C4411480068854201DD0F48056001
:10779000761C602EF2DB04F13000602190FBF1F4E6
:1077A000A4F500600A490968C86008480068A0F5A7
:1077B0000060074909680861064810F02DFB4FF486
:1077C000006000F009F870BD949C00208402002045
:1077D000800200204407002010B50446E00DC005DB
:1077E00008B904B104E040F22311034807F010FA8D
:1077F0000248046010BD00001CC60108143C014092
:1078000070B504460025012C3DD0022C3BD0042C41
:1078100039D0082C37D0102C35D0202C33D0402C28
:1078200031D0802C2FD0B4F5807F2CD0B4F5007FE0
:1078300029D0B4F5806F26D0B4F5006F23D0B4F50D
:10784000805F20D0B4F5005F1DD0B4F5804F1AD012
:10785000B4F5004F17D0B4F5803F14D0B4F5003F15
:1078600011D0B4F5802F0ED0B4F5002F0BD0B4F5A5
:10787000801F08D0B4F5001F05D0B4F5800F02D0EA
:10788000B4F5000F00D104E04FF48671054807F00D
:10789000BFF905480068204008B1012500E0002537
:1078A000284670BD1CC60108143C014070B5044652
:1078B0000025207910B12079042800D103E083212C
:1078C000354807F0A5F96079082805D060790C28BB
:1078D00002D06079102800D103E084212E4807F0FF
:1078E00097F920686FF3160010B9206800B103E023
:1078F0008521294807F08CF9A07910B1A0790128D9
:1079000000D103E08621244807F082F9234DA079B5
:1079100090B3284600682168884329460860081DFE
:10792000006821688843291D08602079054428687B
:107930002168084328601948083000682168884396
:10794000164908310860081D0068216888431349FA
:107950000C310860607910280FD1081F0068216879
:1079600008430E4908310860081D00682168084373
:107970000A490C3108600EE007E0084D60790544C3
:10798000286821680843286005E0207905442868B4
:1079900021688843286070BD1CC60108003C014076
:1079A00010B5044640F2F31024EA000008B904B10F
:1079B00004E04FF4BE61034807F02AF9024804606E
:1079C00010BD00006CC601080C3C02402DE9F041DE
:1079D00004460D46002709266CB3082C2BD0102C2A
:1079E00029D0182C27D0202C25D0282C23D0302C7F
:1079F00021D0382C1FD0402C1DD0482C1BD0502C0F
:107A000019D0582C17D0802C15D0882C13D0902C3E
:107A100011D0982C0FD0A02C0DD0A82C0BD0B02CAE
:107A200009D0B82C07D0C02C05D0C82C03D0D02C3E
:107A300001D0D82C00D104E04FF4EF71264807F0B4
:107A4000E7F82DB1012D03D0022D01D0032D00D177
:107A500004E040F2DF11204807F0DAF80DB9002702
:107A600009E0012D01D12F0205E0022D01D12F02E5
:107A700001E04FF4407700F0AFF80646092E28D118
:107A80001648006820F440701449086008460068F1
:107A9000384308600846006820F0F800086008468F
:107AA000006844F0020108430C4908600846006879
:107AB00040F48030086000F08FF806460748006800
:107AC00020F00200054908600846006820F0F80030
:107AD00008603046BDE8F0816CC60108103C0240E9
:107AE00009201349096801F48031B1F5803F01D1C3
:107AF00001201CE00E49096801F0100109B10620BF
:107B000015E00B49096801F4807109B102200EE00B
:107B10000749096801F0E00109B1072007E00449BD
:107B2000096801F0020109B1082000E0092070474E
:107B30000C3C024070B504460D460926B4F1006FB6
:107B400002D3B4F1016F05D31648844203D316481B
:107B5000844200D804E040F21931144807F058F884
:107B600000F03AF80646092E19D11148006820F4B1
:107B700040700F4908600846006840F400700860D3
:107B80000846006840F001000860256000F024F815
:107B900006460748006820F00100054908603046A5
:107BA00070BD00000078FF1F0F7AFF1F6CC6010830
:107BB000103C02400548006800F0004028B104482D
:107BC00002490C390860034808607047103C0240C5
:107BD00023016745AB89EFCD08B509200090FFF779
:107BE0007FFF009002E0FFF77BFF00909DF8000010
:107BF0000128F8D09DF8000008BD00B597B03C21E1
:107C000008A8FCF75EFE1C2101A8FCF75AFE012122
:107C1000084601F0D9FB02200190082002900F20B5
:107C2000039004900590002006900790089009901A
:107C300008200A9010200B9000200C900D900E90C0
:107C40000F9010904FF480501190002012901390DC
:107C5000149001A81590169008A800F03BF8012197
:107C6000002000F003F817B000BD000070B5044616
:107C70000D462CB1022C03D0042C01D0062C00D1CF
:107C800004E04FF49771114806F0C2FF0DB1012DC9
:107C900000D104E040F22F110C4806F0B9FF55B1B5
:107CA000A000A0F1C040006840F00101A000A0F1D8
:107CB000C040016009E0A000A0F1C0400068044994
:107CC0000840A100A1F1C041086070BDBCC6010818
:107CD000FEFF0F002DE9F041044600250026002795
:107CE000206840B12068022805D02068042802D00E
:107CF0002068062800D103E0A121CF4806F088FFC4
:107D0000606810B16068022800D103E0A221CA486F
:107D100006F07EFFA06828B1A068042802D0A06801
:107D2000082800D103E0A321C34806F071FFE068F2
:107D300010B1E068102800D103E0A421BE4806F08D
:107D400067FF206918B12069B0F5807F00D103E09A
:107D5000A521B94806F05CFF606918B16069B0F50B
:107D6000004F00D103E0A621B34806F051FFA069FF
:107D700018B1A069B0F5007F00D103E0A721AE489B
:107D800006F046FFE06918B1E069B0F5806F00D1F8
:107D900003E0A821A84806F03BFF206A18B1206A3A
:107DA000B0F5006F00D103E0A921A34806F030FF31
:107DB000606A18B1606AB0F5805F00D103E0AA2163
:107DC0009D4806F025FFA06A18B1A06AB0F5005FD3
:107DD00000D103E0AB21984806F01AFFE06A18B121
:107DE000E06AB0F5804F00D103E0AC21924806F084
:107DF0000FFF206B18B1206BB0F5002F00D103E00E
:107E0000AD218D4806F004FF606B00680F2800D894
:107E100003E0AE21884806F0FBFE606B40680F2847
:107E200000D803E0AF21844806F0F2FE606B806862
:107E300020B1606B8068FF2800D803E0B0217E4845
:107E400006F0E6FE606BC0680F2800D803E0B121A1
:107E5000794806F0DDFE606B00690F2800D803E06A
:107E6000B221754806F0D4FE606B40690F2800D837
:107E700003E0B321704806F0CBFE606B806970B1FF
:107E8000606B8069B0F1805F09D0606B8069B0F190
:107E9000005F04D0606B8069B0F1405F00D103E007
:107EA000B421654806F0B4FE20688000A0F1C0400F
:107EB000056862480540D4E901010843E1680843C8
:107EC0002169084361690843A1690843E1690843DE
:107ED000216A0843616A0843A16A0843E16A0843CA
:107EE000216B0843054320688000A0F1C040056075
:107EF000A06808280BD120688000A0F1C04000686D
:107F000040F0400120688000A0F1C040016020687E
:107F1000401C8000A0F1C040066806F04046606B3F
:107F20000068616B496840EA0110616B896840EA4A
:107F30000120616B898940EA0140616B098A40EA4E
:107F40000150616B097D40EA0160616B89690843FA
:107F500006432068401C8000A0F1C0400660E06A33
:107F6000B0F5804F5ED1A06B00680F2800D803E009
:107F7000EC21314806F04CFEA06B40680F2800D879
:107F800003E0ED212C4806F043FEA06B806820B191
:107F9000A06B8068FF2800D803E0EE21264806F099
:107FA00037FEA06BC0680F2800D803E0EF212248FD
:107FB00006F02EFEA06B806970B1A06B8069B0F1F5
:107FC000805F09D0A06B8069B0F1005F04D0A06B26
:107FD0008069B0F1405F00D103E0F021164806F05F
:107FE00017FE20688000A0F1C040D0F8047114484A
:107FF0000740A06B0068A16B496840EA0110A16BC3
:10800000896840EA0120A16B898940EA0140A16B9F
:1080100089690843074320688000A0F1C040C0F888
:10802000047107E06FF0704120688000A0F1C0404B
:10803000C0F80411BDE8F081BCC601088000F7FF5C
:108040000000F0CF1CB502208DF8040000208DF850
:10805000060001208DF8070000208DF805004FF480
:10806000C06000906946074800F00EF80722092119
:10807000044800F0D1F807220A21024800F0CCF8A9
:108080001CBD0000000002402DE9F04104460D46F1
:1080900000260027B046544884421DD053488442ED
:1080A0001AD05348844217D05248844214D05248C0
:1080B000844211D0514884420ED0514884420BD0A2
:1080C0005048844208D05048844205D04F488442EA
:1080D00002D04F48844200D103E0CF214D4806F042
:1080E00097FD288880B200B103E0D021494806F00E
:1080F0008FFD287940B12879012805D028790228F8
:1081000002D02879032800D103E0D121414806F0AC
:108110007FFDE87928B1E879012802D0E8790228C2
:1081200000D103E0D2213B4806F072FD002657E063
:10813000012000FA06F7286800EA0708B8454ED182
:1081400020687200032191408843206028797100E3
:1081500088402168084320602879012802D02879C6
:10816000022830D1687940B16879012805D0687952
:10817000022802D06879032800D103E0E4212548D1
:1081800006F046FDA0687200032191408843A0607C
:10819000687971008840A1680843A060A87910B18F
:1081A000A879012800D103E0EB211A4806F030FD40
:1081B00061680120B040814361606168A879B04086
:1081C00080B201436160E0687200032191408843FE
:1081D000E060E87971008840E1680843E060761C5F
:1081E000102EA5D3BDE8F08100000240000402403B
:1081F00000080240000C024000100240001402403F
:1082000000180240001C02400020024000240240EE
:10821000002802400CC701082DE9F04106460D4632
:1082200014460027B846544886421DD0534886421B
:108230001AD05348864217D05248864214D052482A
:10824000864211D0514886420ED0514886420BD00A
:108250005048864208D05048864205D04F48864252
:1082600002D04F48864200D104E040F249214D48F7
:1082700006F0CEFCEDB1012D1BD0022D19D0032D3F
:1082800017D0042D15D0052D13D0062D11D0072D94
:108290000FD0082D0DD0092D0BD00A2D09D00B2D94
:1082A00007D00C2D05D00D2D03D00E2D01D00F2D94
:1082B00000D104E040F24A213A4806F0A9FCA4B3F8
:1082C000092C32D08CB384B37CB374B3012C2CD082
:1082D0002BD0022C29D028D027D0032C25D0042C39
:1082E00023D022D021D0052C1FD01ED0092C1CD089
:1082F000062C1AD0092C18D0072C16D015D014D063
:10830000082C12D011D010D0092C0ED00DD00A2C70
:108310000BD00AD00B2C08D00C2C06D005D00D2C7D
:1083200003D00F2C01D00C2C00D104E040F24B21E3
:108330001C4806F06DFC6807C00E04FA00F7E9104F
:1083400006F1200050F821006907CA0E0F21914064
:108350008843EA1006F1200141F82200E91006F1F5
:10836000200050F8210040EA0708E91006F120003B
:1083700040F82180BDE8F081000002400004024086
:1083800000080240000C02400010024000140240AD
:1083900000180240001C024000200240002402405D
:1083A000002802400CC7010870B505460C4600269F
:1083B0002E4885421DD02E4885421AD02D48854230
:1083C00017D02D48854214D02C48854211D02C4816
:1083D00085420ED02B4885420BD02B48854208D0D1
:1083E0002A48854205D02A48854202D0294885423C
:1083F00000D104E04FF4A471274806F009FC012CD9
:1084000025D0022C23D0042C21D0082C1FD0102CD6
:108410001DD0202C1BD0402C19D0802C17D0B4F5A7
:10842000807F14D0B4F5007F11D0B4F5806F0ED0EA
:10843000B4F5006F0BD0B4F5805F08D0B4F5005FE1
:1084400005D0B4F5804F02D0B4F5004F00D104E060
:1084500040F24911104806F0DBFB2869204008B1C2
:10846000012600E00026304670BD000000000240FA
:108470000004024000080240000C024000100240CC
:108480000014024000180240001C0240002002407C
:1084900000240240002802400CC7010870B50446C1
:1084A0000D46184884421DD0174884421AD01748F8
:1084B000844217D01648844214D01648844211D002
:1084C000154884420ED0154884420BD0144884428B
:1084D00008D01448844205D01348844202D013487F
:1084E000844200D104E04FF4DA71114806F090FBA9
:1084F000A8B200B104E040F2B5110D4806F088FBC7
:10850000658370BD00000240000402400008024084
:10851000000C02400010024000140240001802400B
:10852000001C0240002002400024024000280240BB
:108530000CC7010870B504460D46184884421DD08A
:10854000174884421AD01748844217D016488442EC
:1085500014D01648844211D0154884420ED01548D4
:1085600084420BD01448844208D01448844205D079
:108570001348844202D01348844200D104E040F200
:108580009F11114806F044FBA8B200B104E04FF47B
:10859000D0710D4806F03CFB258370BD0000024001
:1085A0000004024000080240000C0240001002409B
:1085B0000014024000180240001C0240002002404B
:1085C00000240240002802400CC701080048704700
:1085D000201E002000BFFEE7704710B54FF4804119
:1085E000480300F093F84FF4A06000F06DF810BD60
:1085F00038B5044620798DF8000003208DF801007D
:1086000000208DF8020001208DF80300684600F07C
:1086100001F838BD2DE9F0410446002500270F265A
:10862000E07810B1E078012800D103E08D212248E4
:1086300006F0EEFA6078102800DA03E08E211E487A
:1086400006F0E6FAA078102800DA03E08F211A4835
:1086500006F0DEFAE07818B31848006800F4E0602D
:10866000C0F5E060C0F30725C5F10400C7B22E4194
:108670006078B840C5B2A078304005432807050EA1
:108680000F4821784554207800F01F0101208840D0
:1086900021784911890001F1E021C1F8000109E0C8
:1086A000207800F01F0101208840064922785211ED
:1086B00041F82200BDE8F081E8C401080CED00E0BB
:1086C00000E400E080E100E010B50446B4F5E06F9E
:1086D0000BD0B4F5C06F08D0B4F5A06F05D0B4F5D9
:1086E000806F02D0B4F5407F00D103E079210448C7
:1086F00006F08EFA034820430349086010BD0000CD
:10870000E8C401080000FA050CED00E070B504466D
:108710000D46B4F1005F02D0B4F1006F00D103E068
:10872000B721094806F074FA0848854200D203E0F0
:10873000B821054806F06CFA054905EA0100204316
:108740000449086070BD0000E8C40108FFFF0F0085
:1087500080FFFF1F08ED00E000BF0A48006810F826
:10876000080C0849096811F8041C084405490968FF
:1087700001F8080C03480068001F0249086000BFA8
:10878000704700002806002000BF0A48006850F823
:10879000080C0849096851F8041C0844054909688F
:1087A00041F8080C03480068001F0249086000BF38
:1087B000704700002806002000BF0A48006830F813
:1087C000080C0849096831F8041C084400B205493E
:1087D000096821F8080C03480068001F0149086077
:1087E00000BF70472806002000BF0A48006810F844
:1087F000080C0849096811F8041C08400549096873
:1088000001F8080C03480068001F0249086000BF17
:10881000704700002806002000BF0A48006850F892
:10882000080C0849096851F8041C08400549096802
:1088300041F8080C03480068001F0249086000BFA7
:10884000704700002806002000BF0A48006830F981
:10885000080C0849096831F9041C084005490968F1
:1088600021F8080C03480068001F0249086000BF97
:1088700070470000280600200448006810F8040C27
:10888000C0430249096801F8040C7047280600201B
:108890000448006850F8040CC0430249096841F8D4
:1088A000040C7047280600200448006830F9040CC6
:1088B000C0430249096821F8040C704728060020CB
:1088C00010B5A4B0DF48006800781390DD48006858
:1088D000401CDC49086000201290DB480068001F43
:1088E000D949086011E0D848006802681398401E12
:1088F0001299401A14A941F82020D3480068001F9B
:10890000D14908601298401C1290DDE9120188429A
:10891000E9D3CD48006800681190139811286ED2F1
:10892000DFE800F0090E141D293747596E849CB604
:10893000D2F4F2F1F000002011998847109074E110
:1089400014980F901199884710906EE115980F9028
:1089500014980E90119A0F999047109065E116980F
:108960000F9015980E9014980D90119BDDE90E1242
:108970009847109059E117980F9016980E901598F7
:108980000D9014980C90119C0DA90EC9A047109041
:108990004BE11898009017980F9016980E90159824
:1089A0000D9014980C90119C0DA90EC9A047109021
:1089B0003BE1DDE91801CDE9000117980F90169809
:1089C0000E9015980D9014980C90119C0DA90EC93D
:1089D000A047109029E1DDE919211898CDE901217E
:1089E000009017980F9016980E9015980D90149867
:1089F0000C90119C0DA90EC9A047109015E111E132
:108A0000DDE9193218991B98CDE9013200910390E4
:108A100017980F9016980E9015980D9014980C902A
:108A2000119C0DA90EC9A0471090FEE0DDE91923A5
:108A3000DDE91B10CDE90123CDE903101898009062
:108A400017980F9016980E9015980D9014980C90FA
:108A5000119C0DA90EC9A0471090E6E0DDE91A238C
:108A6000DDE91C10CDE90223CDE90410DDE9180190
:108A7000CDE9000117980F9016980E9015980D905B
:108A800014980C90119C0DA90EC9A0471090CCE031
:108A9000DDE91C321B991E98CDE904320391069042
:108AA000DDE919211898CDE90121009017980F9060
:108AB00016980E9015980D9014980C90119C0DA975
:108AC0000EC9A0471090B0E0DDE91C23DDE91E10BF
:108AD000CDE90423CDE90610DDE9193218991B9878
:108AE000CDE901320091039017980F9016980E90DF
:108AF00015980D9014980C90119C0DA90EC9A047C3
:108B0000109092E068E043E020E0FFE7DDE91E32EC
:108B10001D992098CDE9063205910890DDE91923C9
:108B2000DDE91B01CDE90123CDE90301189800908F
:108B300017980F9016980E9015980D9014980C9009
:108B4000119C0DA90EC9A04710906EE0DDE91E131F
:108B5000DDE92002CDE90613CDE90802DDE91A239B
:108B6000DDE91C01CDE90223CDE90401DDE91801AD
:108B7000CDE9000117980F9016980E9015980D905A
:108B800014980C90119C0DA90EC9A04710904CE0B0
:108B9000DDE92031229A1F98CDE908310A92079029
:108BA000DDE91B23DDE91D01CDE90323CDE9050145
:108BB000DDE919211898CDE90121009017980F904F
:108BC00016980E9015980D9014980C90119C0DA964
:108BD0000EC9A047109028E0DDE9213220992398A2
:108BE000CDE9093208910B90DDE91D321C991F98DF
:108BF000CDE9053204910790DDE91823DDE91A106B
:108C0000CDE90023CDE9021017980F9016980E9029
:108C100015980D9014980C90119C0DA90EC9A047A1
:108C2000109002E00020109000BF00BF064910988D
:108C30000968086004480068001D0349086024B002
:108C400010BD00002C0600202806002000BF0A48A6
:108C5000006810F8080C0849096811F8041C90FB1A
:108C6000F1F00549096801F8080C03480068001F85
:108C70000149086000BF70472806002000BF0A486D
:108C8000006850F8080C0849096851F8041C90FB6A
:108C9000F1F00549096841F8080C03480068001F15
:108CA0000149086000BF70472806002000BF0B483C
:108CB000006830F9080C0949096831F9041C90FB77
:108CC000F1F000B20549096821F8080C0348006872
:108CD000001F0249086000BF7047000028060020FE
:108CE0000848006800780849096808700648006864
:108CF000001D0549086003480068401C01490860E0
:108D0000704700002C060020280600200F4800684D
:108D100000780E490968497840EA01200B49096842
:108D2000897840EA014009490968C97840EA016048
:108D300007490968086006480068001D0449086082
:108D400002480068001D0149086070472C06002099
:108D5000280600201049096809780F4A12685278DD
:108D600041EA02210C4A1268927841EA02410A4A19
:108D70001268D27841EA02600178084A12681170DC
:108D800006490968091D054A116003490968091D5A
:108D9000014A1160704700002C06002028060020C0
:108DA0000449096851F8040C0178024A126802F873
:108DB000041C7047280600201049096809780F4AEA
:108DC0001268527841EA02210C4A1268927841EA0C
:108DD00002410A4A1268D27841EA0260084A0168F0
:108DE0001268116006490968091D054A11600349A6
:108DF0000968091D014A1160704700002C06002017
:108E0000280600200449096851F8040C024A016848
:108E1000126842F8041C70472806002010490968AF
:108E200009780F4A1268527841EA02210C4A126806
:108E3000927841EA02410A4A1268D27841EA026015
:108E40000188084A1268118006490968091D054A07
:108E5000116003490968091D014A1160704700004B
:108E60002C060020280600200449096851F8040C4B
:108E70000188024A126822F8041C70472806002064
:108E80000B48006800780A490968497840EA0120DF
:108E900000B208490968088006480068001D0549B5
:108EA000086003480068801C0149086070470000A2
:108EB0002C0600202806002000BF0B48006810F890
:108EC000080C0949096811F8041C90FBF1F201FB38
:108ED00012000549096801F8080C03480068001FE2
:108EE0000149086000BF70472806002000BF0B48FA
:108EF000006850F8080C0949096851F8041C90FBF7
:108F0000F1F201FB12000549096841F8080C034819
:108F10000068001F0149086000BF70472806002054
:108F200000BF0B48006830F9080C0949096831F99D
:108F3000041C90FBF1F201FB12000549096821F8BD
:108F4000080C03480068001F0149086000BF704713
:108F50002806002000BF0A48006810F8080C0849DD
:108F6000096811F8041C10FB01F00549096801F8B3
:108F7000080C03480068001F0149086000BF7047E3
:108F80002806002000BF0A48006850F8080C08496D
:108F9000096851F8041C48430549096841F8080C60
:108FA00003480068001F0249086000BF70470000C6
:108FB0002806002000BF0B48006830F8080C09495B
:108FC000096831F8041C10FB01F000B2054909687A
:108FD00021F8080C03480068001F0249086000BF20
:108FE00070470000280600207047000000BF0A48B4
:108FF000006810F8080C0849096811F8041C0843B7
:109000000549096801F8080C03480068001F024977
:10901000086000BF704700002806002000BF0A4813
:10902000006850F8080C0849096851F8041C084306
:109030000549096841F8080C03480068001F024907
:10904000086000BF704700002806002000BF0A48E3
:10905000006830F9080C0849096831F9041C084314
:109060000549096821F8080C03480068001F0249F7
:10907000086000BF70470000280600200248006812
:10908000001F0149086070472806002000BF0A48F9
:10909000006810F8080C0849096811F8041C884099
:1090A0000549096801F8080C03480068001F0249D7
:1090B000086000BF704700002806002000BF0A4873
:1090C000006850F8080C0849096811F8041C884029
:1090D0000549096841F8080C03480068001F024967
:1090E000086000BF704700002806002000BF0A4843
:1090F000006830F8080C0849096811F8041C884019
:1091000000B20549096821F8080C03480068001FEF
:109110000149086000BF70472806002000BF0A48C8
:10912000006810F8080C0849096811F8041C084187
:109130000549096801F8080C03480068001F024946
:10914000086000BF704700002806002000BF0A48E2
:10915000006850F8080C0849096811F8041C084117
:109160000549096841F8080C03480068001F0249D6
:10917000086000BF704700002806002000BF0A48B2
:10918000006830F9080C0849096811F8041C084106
:109190000549096821F8080C03480068001F0249C6
:1091A000086000BF704700002806002007480068DC
:1091B00010F8040C0549096851F8081C08700348A8
:1091C0000068001F01490860704700002806002061
:1091D0000748006850F8040C0549096851F8081C54
:1091E000086003480068001F0149086070470000DC
:1091F000280600200748006830F8040C0549096873
:1092000051F8081C088003480068001F01490860E5
:10921000704700002806002000BF0A48006810F8C8
:10922000080C0849096811F8041C401A0549096826
:1092300001F8080C03480068001F0249086000BFDD
:10924000704700002806002000BF0A48006850F858
:10925000080C0849096851F8041C401A05490968B6
:1092600041F8080C03480068001F0249086000BF6D
:10927000704700002806002000BF0A48006830F848
:10928000080C0849096831F8041C401A00B2054965
:10929000096821F8080C03480068001F01490860AC
:1092A00000BF70472806002000BF0A48006810F879
:1092B000080C0849096811F8041C48400549096868
:1092C00001F8080C03480068001F0249086000BF4D
:1092D000704700002806002000BF0A48006850F8C8
:1092E000080C0849096851F8041C484005490968F8
:1092F00041F8080C03480068001F0249086000BFDD
:10930000704700002806002000BF0A48006830F9B6
:10931000080C0849096831F9041C484005490968E6
:1093200021F8080C03480068001F0249086000BFCC
:10933000704700002806002001460A48016001200D
:10934000094A10700020094A1080064A12685269C2
:109350001070044A126812691070FF20044A1070DD
:109360000020704780060020780600208806002034
:109370007006002070B504460D461048204008B91C
:1093800004B104E040F29D710D4805F041FC0DB1BF
:10939000012D00D104E040F29F71094805F038FC2E
:1093A0002DB10848006820430649086004E00548DC
:1093B0000068A0430349086070BD000000E80B018D
:1093C0005CC701083038024070B504460D4624F0F1
:1093D000010008B904B104E040F2DB710C4805F06B
:1093E00017FC0DB1012D00D104E040F2DC710848FA
:1093F00005F00EFC2DB107480068204305490860C0
:1094000004E004480068A0430249086070BD000001
:109410005CC701083838024070B504460D4604F4B4
:10942000585008B904B104E040F614010C4805F0A6
:10943000EFFB0DB1012D00D104E040F61501084805
:1094400005F0E6FB2DB10748006820430549086098
:1094500004E004480068A0430249086070BD0000B1
:109460005CC701084038024070B504460D4604F45C
:10947000585008B904B104E040F6DD010C4805F08D
:10948000C7FB0DB1012D00D104E040F6DE01084814
:1094900005F0BEFB2DB10748006820430549086070
:1094A00004E004480068A0430249086070BD000061
:1094B0005CC701082038024070B504460D461048CC
:1094C000204008B904B104E040F644010D4805F01D
:1094D0009FFB0DB1012D00D104E040F64501094884
:1094E00005F096FB2DB10848006820430649086046
:1094F00004E005480068A0430349086070BD00000F
:10950000CC8008F25CC701084438024070B50446BC
:109510000D461048204008B904B104E040F6081197
:109520000D4805F075FB0DB1012D00D104E040F6AA
:109530000911094805F06CFB2DB10848006820436B
:109540000649086004E005480068A0430349086034
:1095500070BD0000CC8608F25CC7010824380240C8
:1095600010B501210846FFF705FF01211020FFF784
:10957000A3FF10BDF0B50021002200240225002623
:109580000223324F3F6807F00C0121B1042905D0B6
:10959000082937D105E02E4F076036E02D4F0760D0
:1095A00033E02A4F3F1F3F68C7F38056274F3F1FC6
:1095B0003F6807F03F036EB1264FB7FBF3F7DFF8C4
:1095C0008CC0ACF1040CDCF800C0CCF3881C07FBA9
:1095D0000CF40CE01E4FB7FBF3F7DFF870C0ACF1F2
:1095E000040CDCF800C0CCF3881C07FB0CF4174F0C
:1095F0003F1F3F68C7F301477F1C7D00B4FBF5F7B1
:10960000076002E0124F076000BF00BF0F4F3F68C6
:1096100007F0F0010909104F7A5C0768D7404760EE
:109620000A4F3F6807F4E051890A0B4F7A5C47689C
:10963000D7408760054F3F6807F46041490B064FEC
:109640007A5C4768D740C760F0BD00000838024028
:109650000024F40000127A00880200202DE9F04175
:109660000446002500260027212C19D0312C17D0C4
:10967000392C15D0412C13D0612C11D0792C0FD05E
:109680007A2C0DD07B2C0BD07C2C09D07D2C07D0D4
:109690007E2C05D07F2C03D03B2C01D03D2C00D15B
:1096A00004E040F658310F4805F0B2FA6511012D7B
:1096B00002D10D48066808E0022D03D10A48703037
:1096C000066802E008487430066804F01F050120AF
:1096D000A840304008B1012700E000273846BDE827
:1096E000F08100005CC701080038024002480068B1
:1096F00000F00C00704700000838024070B50446C6
:1097000000257CB1802C0DD0902C0BD0A02C09D042
:10971000B02C07D0C02C05D0D02C03D0E02C01D029
:10972000F02C00D104E04FF49761054805F070FA81
:109730000448056825F0F0052543056070BD00006C
:109740005CC701080838024010B504460CB1012C72
:1097500000D104E04FF4BD71024805F059FA024807
:10976000046010BD5CC701080000474270B50446A4
:1097700000255CB1B4F5805F08D0B4F5A05F05D0DA
:10978000B4F5C05F02D0B4F5E05F00D104E040F270
:10979000D741054805F03CFA0448056825F4E05532
:1097A0002543056070BD00005CC701080838024011
:1097B00070B5044600255CB1B4F5805F08D0B4F5FF
:1097C000A05F05D0B4F5C05F02D0B4F5E05F00D172
:1097D00004E040F2F641054805F01AFA044805682D
:1097E00025F4604545EAC405056070BD5CC7010805
:1097F0000838024010B504460CB1012C00D104E039
:1098000040F23621024805F003FA0248046610BD12
:109810005CC70108000047422DE9F04105460F46AC
:1098200016461C46DDF8188015B1B5F5800F00D13D
:1098300004E040F21E211F4805F0EAF93F2F00D84E
:1098400004E040F21F211B4805F0E2F9322E03D359
:10985000B6F5D87F00D804E04FF40871154805F03C
:10986000D7F9022C05D0042C03D0062C01D0082CEB
:1098700000D104E040F221210E4805F0C9F9B8F109
:10988000040F03D3B8F10F0F00D804E040F22221F7
:10989000084805F0BDF947EA86100121C1EB5401E3
:1098A00040EA0140284340EA086003490860BDE8F7
:1098B000F08100005CC701080438024070B504461E
:1098C00000251CB1012C01D0022C00D104E040F293
:1098D0008241054805F09CF90448056825F0030518
:1098E0002543056070BD00005CC7010808380240D0
:1098F00070B504460D46164884420ED01548844281
:109900000BD01548844208D01448844205D014482E
:10991000844202D01348844200D104E040F29531E1
:10992000114805F075F90DB1012D00D104E040F2A8
:1099300096310D4805F06CF925B1208840F40050AF
:10994000208004E020884DF6FF710840208070BD23
:109950000030014000380040003C0040003401402D
:109960000050014000540140ACC7010870B50446E6
:109970000D46164884420ED0154884420BD0154837
:10998000844208D01448844205D01448844202D04E
:109990001348844200D104E040F22321114805F02D
:1099A00037F90DB1012D00D104E04FF409710D48D4
:1099B00005F02EF925B1208840F04000208004E019
:1099C00020884FF6BF710840208070BD00300140F4
:1099D00000380040003C004000340140005001408D
:1099E00000540140ACC7010810B504463048844219
:1099F0000ED0304884420BD02F48844208D02F48E4
:109A0000844205D02E48844202D02E48844200D1A0
:109A100003E0E3212C4805F0FBF82548844208D1F7
:109A200001218014FFF772FD0021A014FFF76EFDE5
:109A30003CE02048844208D101210014FFF714FDC6
:109A400000212014FFF710FD30E01B48844208D1AC
:109A50000121C013FFF708FD0021E013FFF704FD0B
:109A600024E01648844208D101214014FFF74EFD3E
:109A700000216014FFF74AFD18E01148844209D123
:109A800001210805FFF742FD00214FF48010FFF788
:109A90003DFD0BE00B48844208D101214805FFF74A
:109AA00035FD00214FF40010FFF730FD10BD000020
:109AB0000030014000380040003C004000340140CC
:109AC0000050014000540140ACC7010870B5054684
:109AD0000C4600261F48854214D01F48854211D0ED
